{"abi":[{"type":"constructor","inputs":[{"name":"_ethUsdPriceFeed","type":"address","internalType":"address"}],"stateMutability":"nonpayable"},{"type":"function","name":"convertTokenToUSD","inputs":[{"name":"tokenAddress","type":"address","internalType":"address"},{"name":"amount","type":"uint256","internalType":"uint256"}],"outputs":[{"name":"","type":"uint256","internalType":"uint256"}],"stateMutability":"view"},{"type":"function","name":"convertUSDToToken","inputs":[{"name":"tokenAddress","type":"address","internalType":"address"},{"name":"usdAmount","type":"uint256","internalType":"uint256"}],"outputs":[{"name":"","type":"uint256","internalType":"uint256"}],"stateMutability":"view"},{"type":"function","name":"ethUsdPriceFeed","inputs":[],"outputs":[{"name":"","type":"address","internalType":"address"}],"stateMutability":"view"},{"type":"function","name":"getLatestETHPrice","inputs":[],"outputs":[{"name":"","type":"int256","internalType":"int256"}],"stateMutability":"view"},{"type":"function","name":"getLatestPrice","inputs":[{"name":"tokenAddress","type":"address","internalType":"address"}],"outputs":[{"name":"","type":"int256","internalType":"int256"}],"stateMutability":"view"},{"type":"function","name":"getPriceFeedDecimals","inputs":[{"name":"tokenAddress","type":"address","internalType":"address"}],"outputs":[{"name":"","type":"uint8","internalType":"uint8"}],"stateMutability":"view"},{"type":"function","name":"owner","inputs":[],"outputs":[{"name":"","type":"address","internalType":"address"}],"stateMutability":"view"},{"type":"function","name":"renounceOwnership","inputs":[],"outputs":[],"stateMutability":"nonpayable"},{"type":"function","name":"setPriceFeed","inputs":[{"name":"tokenAddress","type":"address","internalType":"address"},{"name":"priceFeedAddress","type":"address","internalType":"address"}],"outputs":[],"stateMutability":"nonpayable"},{"type":"function","name":"transferOwnership","inputs":[{"name":"newOwner","type":"address","internalType":"address"}],"outputs":[],"stateMutability":"nonpayable"},{"type":"function","name":"updateEthUsdPriceFeed","inputs":[{"name":"_ethUsdPriceFeed","type":"address","internalType":"address"}],"outputs":[],"stateMutability":"nonpayable"},{"type":"event","name":"OwnershipTransferred","inputs":[{"name":"previousOwner","type":"address","indexed":true,"internalType":"address"},{"name":"newOwner","type":"address","indexed":true,"internalType":"address"}],"anonymous":false},{"type":"error","name":"OwnableInvalidOwner","inputs":[{"name":"owner","type":"address","internalType":"address"}]},{"type":"error","name":"OwnableUnauthorizedAccount","inputs":[{"name":"account","type":"address","internalType":"address"}]}],"bytecode":{"object":"0x608060405234801561000f575f80fd5b50604051610b43380380610b4383398101604081905261002e916100d1565b338061005357604051631e4fbdf760e01b81525f600482015260240160405180910390fd5b61005c81610082565b50600280546001600160a01b0319166001600160a01b03929092169190911790556100fe565b5f80546001600160a01b038381166001600160a01b0319831681178455604051919092169283917f8be0079c531659141344cd1fd0a4f28419497f9722a3daafe3b4186f6b6457e09190a35050565b5f602082840312156100e1575f80fd5b81516001600160a01b03811681146100f7575f80fd5b9392505050565b610a388061010b5f395ff3fe608060405234801561000f575f80fd5b50600436106100a6575f3560e01c806376e112861161006e57806376e112861461012b578063777e0d861461013e5780638c8557d9146101465780638da5cb5b1461016b578063c9434b4c1461017b578063f2fde38b1461018e575f80fd5b806316345f18146100aa57806342f6fb29146100d05780635e96da62146100fb578063641be5dc1461010e578063715018a614610121575b5f80fd5b6100bd6100b836600461079e565b6101a1565b6040519081526020015b60405180910390f35b6002546100e3906001600160a01b031681565b6040516001600160a01b0390911681526020016100c7565b6100bd6101093660046107be565b610256565b6100bd61011c3660046107be565b610389565b6101296104e5565b005b6101296101393660046107e6565b6104f8565b6100bd61052d565b61015961015436600461079e565b6105fc565b60405160ff90911681526020016100c7565b5f546001600160a01b03166100e3565b61012961018936600461079e565b6106a1565b61012961019c36600461079e565b6106cb565b6001600160a01b038082165f90815260016020526040812054909116806101e35760405162461bcd60e51b81526004016101da90610817565b60405180910390fd5b5f8190505f816001600160a01b031663feaf968c6040518163ffffffff1660e01b815260040160a060405180830381865afa158015610224573d5f803e3d5ffd5b505050506040513d601f19601f82011682018060405250810190610248919061085e565b509198975050505050505050565b6001600160a01b038083165f908152600160205260408120549091168061028f5760405162461bcd60e51b81526004016101da90610817565b5f8190505f816001600160a01b031663feaf968c6040518163ffffffff1660e01b815260040160a060405180830381865afa1580156102d0573d5f803e3d5ffd5b505050506040513d601f19601f820116820180604052508101906102f4919061085e565b5050509150505f826001600160a01b031663313ce5676040518163ffffffff1660e01b8152600401602060405180830381865afa158015610337573d5f803e3d5ffd5b505050506040513d601f19601f8201168201806040525081019061035b91906108aa565b905061036881600a6109be565b61037283886109cc565b61037c91906109e3565b9450505050505b92915050565b6001600160a01b038083165f90815260016020526040812054909116806103c25760405162461bcd60e51b81526004016101da90610817565b5f8190505f816001600160a01b031663feaf968c6040518163ffffffff1660e01b815260040160a060405180830381865afa158015610403573d5f803e3d5ffd5b505050506040513d601f19601f82011682018060405250810190610427919061085e565b5050509150505f811361046c5760405162461bcd60e51b815260206004820152600d60248201526c496e76616c696420707269636560981b60448201526064016101da565b5f826001600160a01b031663313ce5676040518163ffffffff1660e01b8152600401602060405180830381865afa1580156104a9573d5f803e3d5ffd5b505050506040513d601f19601f820116820180604052508101906104cd91906108aa565b9050816104db82600a6109be565b61037290886109cc565b6104ed610708565b6104f65f610734565b565b610500610708565b6001600160a01b039182165f90815260016020526040902080546001600160a01b03191691909216179055565b6002545f906001600160a01b03166105805760405162461bcd60e51b8152602060048201526016602482015275115512081c1c9a58d94819995959081b9bdd081cd95d60521b60448201526064016101da565b60025460408051633fabe5a360e21b815290516001600160a01b03909216915f91839163feaf968c9160048082019260a0929091908290030181865afa1580156105cc573d5f803e3d5ffd5b505050506040513d601f19601f820116820180604052508101906105f0919061085e565b50919695505050505050565b6001600160a01b038082165f90815260016020526040812054909116806106355760405162461bcd60e51b81526004016101da90610817565b5f819050806001600160a01b031663313ce5676040518163ffffffff1660e01b8152600401602060405180830381865afa158015610675573d5f803e3d5ffd5b505050506040513d601f19601f8201168201806040525081019061069991906108aa565b949350505050565b6106a9610708565b600280546001600160a01b0319166001600160a01b0392909216919091179055565b6106d3610708565b6001600160a01b0381166106fc57604051631e4fbdf760e01b81525f60048201526024016101da565b61070581610734565b50565b5f546001600160a01b031633146104f65760405163118cdaa760e01b81523360048201526024016101da565b5f80546001600160a01b038381166001600160a01b0319831681178455604051919092169283917f8be0079c531659141344cd1fd0a4f28419497f9722a3daafe3b4186f6b6457e09190a35050565b80356001600160a01b0381168114610799575f80fd5b919050565b5f602082840312156107ae575f80fd5b6107b782610783565b9392505050565b5f80604083850312156107cf575f80fd5b6107d883610783565b946020939093013593505050565b5f80604083850312156107f7575f80fd5b61080083610783565b915061080e60208401610783565b90509250929050565b602080825260149082015273141c9a58d94819995959081b9bdd08199bdd5b9960621b604082015260600190565b805169ffffffffffffffffffff81168114610799575f80fd5b5f805f805f60a08688031215610872575f80fd5b61087b86610845565b945060208601519350604086015192506060860151915061089e60808701610845565b90509295509295909350565b5f602082840312156108ba575f80fd5b815160ff811681146107b7575f80fd5b634e487b7160e01b5f52601160045260245ffd5b600181815b8085111561091857815f19048211156108fe576108fe6108ca565b8085161561090b57918102915b93841c93908002906108e3565b509250929050565b5f8261092e57506001610383565b8161093a57505f610383565b8160018114610950576002811461095a57610976565b6001915050610383565b60ff84111561096b5761096b6108ca565b50506001821b610383565b5060208310610133831016604e8410600b8410161715610999575081810a610383565b6109a383836108de565b805f19048211156109b6576109b66108ca565b029392505050565b5f6107b760ff841683610920565b8082028115828204841417610383576103836108ca565b5f826109fd57634e487b7160e01b5f52601260045260245ffd5b50049056fea2646970667358221220bcaf47f5c3e79390e21a13b5a76df6de944a3dad40825cbff7e8db5ff157a9d764736f6c63430008140033","linkReferences":{}},"methodIdentifiers":{"convertTokenToUSD(address,uint256)":"5e96da62","convertUSDToToken(address,uint256)":"641be5dc","ethUsdPriceFeed()":"42f6fb29","getLatestETHPrice()":"777e0d86","getLatestPrice(address)":"16345f18","getPriceFeedDecimals(address)":"8c8557d9","owner()":"8da5cb5b","renounceOwnership()":"715018a6","setPriceFeed(address,address)":"76e11286","transferOwnership(address)":"f2fde38b","updateEthUsdPriceFeed(address)":"c9434b4c"},"id":38}