{"abi":[{"type":"constructor","inputs":[{"name":"_priceFeed","type":"address","internalType":"address"}],"stateMutability":"nonpayable"},{"type":"function","name":"addLiquidity","inputs":[{"name":"tokenAddress","type":"address","internalType":"address"},{"name":"tokenAmount","type":"uint256","internalType":"uint256"}],"outputs":[],"stateMutability":"payable"},{"type":"function","name":"createPair","inputs":[{"name":"tokenAddress","type":"address","internalType":"address"},{"name":"initialTokenAmount","type":"uint256","internalType":"uint256"}],"outputs":[],"stateMutability":"payable"},{"type":"function","name":"getETHOutForTokens","inputs":[{"name":"tokenAddress","type":"address","internalType":"address"},{"name":"tokenAmount","type":"uint256","internalType":"uint256"}],"outputs":[{"name":"","type":"uint256","internalType":"uint256"}],"stateMutability":"view"},{"type":"function","name":"getExchangeRate","inputs":[{"name":"tokenAddress","type":"address","internalType":"address"}],"outputs":[{"name":"","type":"uint256","internalType":"uint256"}],"stateMutability":"view"},{"type":"function","name":"getLiquidity","inputs":[{"name":"tokenAddress","type":"address","internalType":"address"}],"outputs":[{"name":"tokenReserve","type":"uint256","internalType":"uint256"},{"name":"ethReserve","type":"uint256","internalType":"uint256"}],"stateMutability":"view"},{"type":"function","name":"getTokensOutForETH","inputs":[{"name":"tokenAddress","type":"address","internalType":"address"},{"name":"ethAmount","type":"uint256","internalType":"uint256"}],"outputs":[{"name":"","type":"uint256","internalType":"uint256"}],"stateMutability":"view"},{"type":"function","name":"liquidityTokens","inputs":[{"name":"","type":"address","internalType":"address"},{"name":"","type":"address","internalType":"address"}],"outputs":[{"name":"","type":"uint256","internalType":"uint256"}],"stateMutability":"view"},{"type":"function","name":"owner","inputs":[],"outputs":[{"name":"","type":"address","internalType":"address"}],"stateMutability":"view"},{"type":"function","name":"pairs","inputs":[{"name":"","type":"address","internalType":"address"}],"outputs":[{"name":"tokenReserve","type":"uint256","internalType":"uint256"},{"name":"ethReserve","type":"uint256","internalType":"uint256"},{"name":"exists","type":"bool","internalType":"bool"}],"stateMutability":"view"},{"type":"function","name":"priceFeed","inputs":[],"outputs":[{"name":"","type":"address","internalType":"contract IPasifikaPriceFeed"}],"stateMutability":"view"},{"type":"function","name":"removeLiquidity","inputs":[{"name":"tokenAddress","type":"address","internalType":"address"},{"name":"liquidityAmount","type":"uint256","internalType":"uint256"}],"outputs":[],"stateMutability":"nonpayable"},{"type":"function","name":"renounceOwnership","inputs":[],"outputs":[],"stateMutability":"nonpayable"},{"type":"function","name":"swapETHForTokens","inputs":[{"name":"tokenAddress","type":"address","internalType":"address"},{"name":"minTokens","type":"uint256","internalType":"uint256"}],"outputs":[],"stateMutability":"payable"},{"type":"function","name":"swapTokensForETH","inputs":[{"name":"tokenAddress","type":"address","internalType":"address"},{"name":"tokenAmount","type":"uint256","internalType":"uint256"},{"name":"minETH","type":"uint256","internalType":"uint256"}],"outputs":[],"stateMutability":"nonpayable"},{"type":"function","name":"totalLiquidity","inputs":[{"name":"","type":"address","internalType":"address"}],"outputs":[{"name":"","type":"uint256","internalType":"uint256"}],"stateMutability":"view"},{"type":"function","name":"transferOwnership","inputs":[{"name":"newOwner","type":"address","internalType":"address"}],"outputs":[],"stateMutability":"nonpayable"},{"type":"function","name":"updatePriceFeed","inputs":[{"name":"_priceFeed","type":"address","internalType":"address"}],"outputs":[],"stateMutability":"nonpayable"},{"type":"event","name":"LiquidityAdded","inputs":[{"name":"provider","type":"address","indexed":true,"internalType":"address"},{"name":"tokenAddress","type":"address","indexed":true,"internalType":"address"},{"name":"tokenAmount","type":"uint256","indexed":false,"internalType":"uint256"},{"name":"ethAmount","type":"uint256","indexed":false,"internalType":"uint256"},{"name":"timestamp","type":"uint256","indexed":false,"internalType":"uint256"}],"anonymous":false},{"type":"event","name":"LiquidityRemoved","inputs":[{"name":"provider","type":"address","indexed":true,"internalType":"address"},{"name":"tokenAddress","type":"address","indexed":true,"internalType":"address"},{"name":"tokenAmount","type":"uint256","indexed":false,"internalType":"uint256"},{"name":"ethAmount","type":"uint256","indexed":false,"internalType":"uint256"},{"name":"timestamp","type":"uint256","indexed":false,"internalType":"uint256"}],"anonymous":false},{"type":"event","name":"OwnershipTransferred","inputs":[{"name":"previousOwner","type":"address","indexed":true,"internalType":"address"},{"name":"newOwner","type":"address","indexed":true,"internalType":"address"}],"anonymous":false},{"type":"event","name":"TradeExecuted","inputs":[{"name":"buyer","type":"address","indexed":true,"internalType":"address"},{"name":"seller","type":"address","indexed":true,"internalType":"address"},{"name":"tokenAddress","type":"address","indexed":true,"internalType":"address"},{"name":"tokenAmount","type":"uint256","indexed":false,"internalType":"uint256"},{"name":"ethAmount","type":"uint256","indexed":false,"internalType":"uint256"},{"name":"timestamp","type":"uint256","indexed":false,"internalType":"uint256"}],"anonymous":false},{"type":"error","name":"OwnableInvalidOwner","inputs":[{"name":"owner","type":"address","internalType":"address"}]},{"type":"error","name":"OwnableUnauthorizedAccount","inputs":[{"name":"account","type":"address","internalType":"address"}]},{"type":"error","name":"ReentrancyGuardReentrantCall","inputs":[]},{"type":"error","name":"SafeERC20FailedOperation","inputs":[{"name":"token","type":"address","internalType":"address"}]}],"bytecode":{"object":"0x608060405234801561000f575f80fd5b5060405161174038038061174083398101604081905261002e916100d5565b338061005357604051631e4fbdf760e01b81525f600482015260240160405180910390fd5b61005c81610086565b5060018055600280546001600160a01b0319166001600160a01b0392909216919091179055610102565b5f80546001600160a01b038381166001600160a01b0319831681178455604051919092169283917f8be0079c531659141344cd1fd0a4f28419497f9722a3daafe3b4186f6b6457e09190a35050565b5f602082840312156100e5575f80fd5b81516001600160a01b03811681146100fb575f80fd5b9392505050565b6116318061010f5f395ff3fe6080604052600436106100fa575f3560e01c806395877f7811610092578063e15cc8da11610062578063e15cc8da146102a5578063efb7601d146102c4578063f2fde38b146102e3578063f8948f6214610302578063fe33b30214610321575f80fd5b806395877f7814610208578063a201ccf614610227578063a747b93b14610246578063c56326de1461027a575f80fd5b8063715018a6116100cd578063715018a61461018e578063741bef1a146101a2578063883d3bbd146101d95780638da5cb5b146101ec575f80fd5b80632b42e379146100fe5780634966b2761461013057806351422e9714610166578063566887001461017b575b5f80fd5b348015610109575f80fd5b5061011d610118366004611438565b61037b565b6040519081526020015b60405180910390f35b34801561013b575f80fd5b5061011d61014a366004611460565b600460209081525f928352604080842090915290825290205481565b610179610174366004611438565b61045f565b005b610179610189366004611438565b610628565b348015610199575f80fd5b506101796108e9565b3480156101ad575f80fd5b506002546101c1906001600160a01b031681565b6040516001600160a01b039091168152602001610127565b6101796101e7366004611438565b6108fc565b3480156101f7575f80fd5b505f546001600160a01b03166101c1565b348015610213575f80fd5b50610179610222366004611491565b610ac9565b348015610232575f80fd5b50610179610241366004611438565b610af3565b348015610251575f80fd5b50610265610260366004611491565b610dfa565b60408051928352602083019190915201610127565b348015610285575f80fd5b5061011d610294366004611491565b60056020525f908152604090205481565b3480156102b0575f80fd5b506101796102bf3660046114aa565b610e7f565b3480156102cf575f80fd5b5061011d6102de366004611491565b6110d6565b3480156102ee575f80fd5b506101796102fd366004611491565b611178565b34801561030d575f80fd5b5061011d61031c366004611438565b6111b5565b34801561032c575f80fd5b5061035e61033b366004611491565b60036020525f908152604090208054600182015460029092015490919060ff1683565b604080519384526020840192909252151590820152606001610127565b6001600160a01b0382165f9081526003602052604081206002015460ff166103be5760405162461bcd60e51b81526004016103b5906114da565b60405180910390fd5b6001600160a01b0383165f9081526003602081815260408084208151606081018352815481526001820154938101939093526002015460ff16151590820152919061040b906103e861151b565b610415908561152e565b82519091505f90610426908361152e565b90505f826103e8856020015161043c919061152e565b6104469190611545565b90506104528183611558565b9450505050505b92915050565b61046761126e565b6001600160a01b0382165f9081526003602052604090206002015460ff166104a15760405162461bcd60e51b81526004016103b5906114da565b5f34116104c05760405162461bcd60e51b81526004016103b590611577565b6001600160a01b0382165f90815260036020819052604082209134916104e8906103e861151b565b6104f2908361152e565b83549091505f90610503908361152e565b90505f826103e88660010154610519919061152e565b6105239190611545565b90505f6105308284611558565b9050868110156105825760405162461bcd60e51b815260206004820152601b60248201527f4f757470757420616d6f756e742062656c6f77206d696e696d756d000000000060448201526064016103b5565b84866001015f8282546105959190611545565b90915550508554819087905f906105ad90849061151b565b909155506105c790506001600160a01b0389163383611298565b60408051828152346020820152428183015290516001600160a01b038a1691309133917f6d2a49dc58cbd626bd59e1de8c53b7f89e2d4593ffa0c77aaadb93d227fb077a919081900360600190a450505050505061062460018055565b5050565b61063061126e565b6001600160a01b0382165f9081526003602052604090206002015460ff1661066a5760405162461bcd60e51b81526004016103b5906114da565b5f81116106895760405162461bcd60e51b81526004016103b5906115b8565b5f34116106a85760405162461bcd60e51b81526004016103b590611577565b6001600160a01b0382165f908152600360205260408120805460018201549192916106d3908561152e565b6106dd9190611558565b600183015483549192505f916106f3903461152e565b6106fd9190611558565b90505f808334106107ac57839150859050833411156107a7575f33610722863461151b565b6040515f81818185875af1925050503d805f811461075b576040519150601f19603f3d011682016040523d82523d5f602084013e610760565b606091505b50509050806107a55760405162461bcd60e51b8152602060048201526011602482015270115512081c99599d5b990819985a5b1959607a1b60448201526064016103b5565b505b6107b2565b50349050815b6107c76001600160a01b0388163330846112f7565b84546001600160a01b0388165f908152600560205260408120549091906107ee908461152e565b6107f89190611558565b905081865f015f82825461080c9190611545565b9250508190555082866001015f8282546108269190611545565b90915550506001600160a01b0388165f9081526004602090815260408083203384529091528120805483929061085d908490611545565b90915550506001600160a01b0388165f9081526005602052604081208054839290610889908490611545565b90915550506040805183815260208101859052428183015290516001600160a01b038a169133917f4a1a2a6176e9646d9e3157f7c2ab3c499f18337c0b0828cfb28e0a61de4a11f79181900360600190a350505050505061062460018055565b6108f1611336565b6108fa5f611362565b565b61090461126e565b6001600160a01b0382166109525760405162461bcd60e51b8152602060048201526015602482015274496e76616c696420746f6b656e206164647265737360581b60448201526064016103b5565b6001600160a01b0382165f9081526003602052604090206002015460ff16156109b35760405162461bcd60e51b81526020600482015260136024820152725061697220616c72656164792065786973747360681b60448201526064016103b5565b5f81116109d25760405162461bcd60e51b81526004016103b5906115b8565b5f34116109f15760405162461bcd60e51b81526004016103b590611577565b610a066001600160a01b0383163330846112f7565b604080516060808201835283825234602080840182815260018587018181526001600160a01b038a165f8181526003865289812098518955935192880192909255516002909601805460ff19169615159690961790955560048252858120338083529083528682208890558582526005835290869020879055855187815291820192909252429481019490945291927f4a1a2a6176e9646d9e3157f7c2ab3c499f18337c0b0828cfb28e0a61de4a11f7910160405180910390a361062460018055565b610ad1611336565b600280546001600160a01b0319166001600160a01b0392909216919091179055565b610afb61126e565b6001600160a01b0382165f9081526003602052604090206002015460ff16610b355760405162461bcd60e51b81526004016103b5906114da565b5f8111610b845760405162461bcd60e51b815260206004820152601d60248201527f416d6f756e74206d7573742062652067726561746572207468616e203000000060448201526064016103b5565b6001600160a01b0382165f908152600460209081526040808320338452909152902054811115610bf65760405162461bcd60e51b815260206004820152601d60248201527f496e73756666696369656e74206c697175696469747920746f6b656e7300000060448201526064016103b5565b6001600160a01b0382165f90815260036020908152604080832060059092528220548154919291610c27908561152e565b610c319190611558565b6001600160a01b0385165f9081526005602052604081205460018501549293509091610c5d908661152e565b610c679190611558565b6001600160a01b0386165f908152600460209081526040808320338452909152812080549293508692909190610c9e90849061151b565b90915550506001600160a01b0385165f9081526005602052604081208054869290610cca90849061151b565b90915550508254829084905f90610ce290849061151b565b9250508190555080836001015f828254610cfc919061151b565b90915550610d1690506001600160a01b0386163384611298565b6040515f90339083908381818185875af1925050503d805f8114610d55576040519150601f19603f3d011682016040523d82523d5f602084013e610d5a565b606091505b5050905080610da15760405162461bcd60e51b8152602060048201526013602482015272115512081d1c985b9cd9995c8819985a5b1959606a1b60448201526064016103b5565b6040805184815260208101849052428183015290516001600160a01b0388169133917fbc7d19d505c7ec4db83f3b51f19fb98c4c8a99922e7839d1ee608dfbee29501b9181900360600190a35050505061062460018055565b6001600160a01b0381165f90815260036020526040812060020154819060ff16610e365760405162461bcd60e51b81526004016103b5906114da565b50506001600160a01b03165f9081526003602090815260409182902082516060810184528154808252600183015493820184905260029092015460ff1615159301929092529091565b610e8761126e565b6001600160a01b0383165f9081526003602052604090206002015460ff16610ec15760405162461bcd60e51b81526004016103b5906114da565b5f8211610ee05760405162461bcd60e51b81526004016103b5906115b8565b6001600160a01b0383165f90815260036020819052604082209190610f07906103e861151b565b610f11908561152e565b90505f826001015482610f24919061152e565b90505f826103e8855f0154610f39919061152e565b610f439190611545565b90505f610f508284611558565b905085811015610fa25760405162461bcd60e51b815260206004820152601b60248201527f4f757470757420616d6f756e742062656c6f77206d696e696d756d000000000060448201526064016103b5565b610fb76001600160a01b03891633308a6112f7565b86855f015f828254610fc99190611545565b9250508190555080856001015f828254610fe3919061151b565b90915550506040515f90339083908381818185875af1925050503d805f8114611027576040519150601f19603f3d011682016040523d82523d5f602084013e61102c565b606091505b50509050806110735760405162461bcd60e51b8152602060048201526013602482015272115512081d1c985b9cd9995c8819985a5b1959606a1b60448201526064016103b5565b6040805189815260208101849052428183015290516001600160a01b038b1691309133917f6d2a49dc58cbd626bd59e1de8c53b7f89e2d4593ffa0c77aaadb93d227fb077a919081900360600190a45050505050506110d160018055565b505050565b6001600160a01b0381165f9081526003602052604081206002015460ff166111105760405162461bcd60e51b81526004016103b5906114da565b6001600160a01b0382165f9081526003602090815260409182902082516060810184528154808252600183015493820184905260029092015460ff1615159381019390935261116790670de0b6b3a764000061152e565b6111719190611558565b9392505050565b611180611336565b6001600160a01b0381166111a957604051631e4fbdf760e01b81525f60048201526024016103b5565b6111b281611362565b50565b6001600160a01b0382165f9081526003602052604081206002015460ff166111ef5760405162461bcd60e51b81526004016103b5906114da565b6001600160a01b0383165f9081526003602081815260408084208151606081018352815481526001820154938101939093526002015460ff16151590820152919061123c906103e861151b565b611246908561152e565b90505f826020015182611259919061152e565b90505f826103e8855f015161043c919061152e565b60026001540361129157604051633ee5aeb560e01b815260040160405180910390fd5b6002600155565b6040516001600160a01b038381166024830152604482018390526110d191859182169063a9059cbb906064015b604051602081830303815290604052915060e01b6020820180516001600160e01b0383818316178352505050506113b1565b6040516001600160a01b0384811660248301528381166044830152606482018390526113309186918216906323b872dd906084016112c5565b50505050565b5f546001600160a01b031633146108fa5760405163118cdaa760e01b81523360048201526024016103b5565b5f80546001600160a01b038381166001600160a01b0319831681178455604051919092169283917f8be0079c531659141344cd1fd0a4f28419497f9722a3daafe3b4186f6b6457e09190a35050565b5f8060205f8451602086015f885af1806113d0576040513d5f823e3d81fd5b50505f513d915081156113e75780600114156113f4565b6001600160a01b0384163b155b1561133057604051635274afe760e01b81526001600160a01b03851660048201526024016103b5565b80356001600160a01b0381168114611433575f80fd5b919050565b5f8060408385031215611449575f80fd5b6114528361141d565b946020939093013593505050565b5f8060408385031215611471575f80fd5b61147a8361141d565b91506114886020840161141d565b90509250929050565b5f602082840312156114a1575f80fd5b6111718261141d565b5f805f606084860312156114bc575f80fd5b6114c58461141d565b95602085013595506040909401359392505050565b60208082526013908201527214185a5c88191bd95cc81b9bdd08195e1a5cdd606a1b604082015260600190565b634e487b7160e01b5f52601160045260245ffd5b8181038181111561045957610459611507565b808202811582820484141761045957610459611507565b8082018082111561045957610459611507565b5f8261157257634e487b7160e01b5f52601260045260245ffd5b500490565b60208082526021908201527f45544820616d6f756e74206d7573742062652067726561746572207468616e206040820152600360fc1b606082015260800190565b60208082526023908201527f546f6b656e20616d6f756e74206d75737420626520677265617465722074686160408201526206e20360ec1b60608201526080019056fea2646970667358221220672c2b43a50d7ab27e416264f3062533964879f2f754781293a5a912c0fb710764736f6c63430008140033","linkReferences":{}},"methodIdentifiers":{"addLiquidity(address,uint256)":"56688700","createPair(address,uint256)":"883d3bbd","getETHOutForTokens(address,uint256)":"f8948f62","getExchangeRate(address)":"efb7601d","getLiquidity(address)":"a747b93b","getTokensOutForETH(address,uint256)":"2b42e379","liquidityTokens(address,address)":"4966b276","owner()":"8da5cb5b","pairs(address)":"fe33b302","priceFeed()":"741bef1a","removeLiquidity(address,uint256)":"a201ccf6","renounceOwnership()":"715018a6","swapETHForTokens(address,uint256)":"51422e97","swapTokensForETH(address,uint256,uint256)":"e15cc8da","totalLiquidity(address)":"c56326de","transferOwnership(address)":"f2fde38b","updatePriceFeed(address)":"95877f78"},"id":35}